{
	"src/Victim.sol": {
		"LibraryContract": {
			"abi": [
				{
					"inputs": [
						{
							"internalType": "uint256",
							"name": "_time",
							"type": "uint256"
						}
					],
					"name": "setTime",
					"outputs": [],
					"stateMutability": "nonpayable",
					"type": "function"
				}
			],
			"devdoc": {
				"kind": "dev",
				"methods": {},
				"version": 1
			},
			"evm": {
				"assembly": "    /* \"src/Victim.sol\":611:777  contract LibraryContract {... */\n  mstore(0x40, 0x80)\n  callvalue\n  dup1\n  iszero\n  tag_1\n  jumpi\n  0x00\n  dup1\n  revert\ntag_1:\n  pop\n  dataSize(sub_0)\n  dup1\n  dataOffset(sub_0)\n  0x00\n  codecopy\n  0x00\n  return\nstop\n\nsub_0: assembly {\n        /* \"src/Victim.sol\":611:777  contract LibraryContract {... */\n      mstore(0x40, 0x80)\n      callvalue\n      dup1\n      iszero\n      tag_1\n      jumpi\n      0x00\n      dup1\n      revert\n    tag_1:\n      pop\n      jumpi(tag_2, lt(calldatasize, 0x04))\n      shr(0xe0, calldataload(0x00))\n      dup1\n      0x3beb26c4\n      eq\n      tag_3\n      jumpi\n    tag_2:\n      0x00\n      dup1\n      revert\n        /* \"src/Victim.sol\":700:775  function setTime(uint256 _time) public {... */\n    tag_3:\n      tag_4\n      0x04\n      dup1\n      calldatasize\n      sub\n      dup2\n      add\n      swap1\n      tag_5\n      swap2\n      swap1\n      tag_6\n      jump\t// in\n    tag_5:\n      tag_7\n      jump\t// in\n    tag_4:\n      stop\n    tag_7:\n        /* \"src/Victim.sol\":762:767  _time */\n      dup1\n        /* \"src/Victim.sol\":749:759  storedTime */\n      0x00\n        /* \"src/Victim.sol\":749:767  storedTime = _time */\n      dup2\n      swap1\n      sstore\n      pop\n        /* \"src/Victim.sol\":700:775  function setTime(uint256 _time) public {... */\n      pop\n      jump\t// out\n        /* \"#utility.yul\":7:146   */\n    tag_10:\n      0x00\n        /* \"#utility.yul\":91:97   */\n      dup2\n        /* \"#utility.yul\":78:98   */\n      calldataload\n        /* \"#utility.yul\":69:98   */\n      swap1\n      pop\n        /* \"#utility.yul\":107:140   */\n      tag_12\n        /* \"#utility.yul\":134:139   */\n      dup2\n        /* \"#utility.yul\":107:140   */\n      tag_13\n      jump\t// in\n    tag_12:\n        /* \"#utility.yul\":59:146   */\n      swap3\n      swap2\n      pop\n      pop\n      jump\t// out\n        /* \"#utility.yul\":152:414   */\n    tag_6:\n      0x00\n        /* \"#utility.yul\":260:262   */\n      0x20\n        /* \"#utility.yul\":248:257   */\n      dup3\n        /* \"#utility.yul\":239:246   */\n      dup5\n        /* \"#utility.yul\":235:258   */\n      sub\n        /* \"#utility.yul\":231:263   */\n      slt\n        /* \"#utility.yul\":228:230   */\n      iszero\n      tag_15\n      jumpi\n        /* \"#utility.yul\":276:277   */\n      0x00\n        /* \"#utility.yul\":273:274   */\n      dup1\n        /* \"#utility.yul\":266:278   */\n      revert\n        /* \"#utility.yul\":228:230   */\n    tag_15:\n        /* \"#utility.yul\":319:320   */\n      0x00\n        /* \"#utility.yul\":344:397   */\n      tag_16\n        /* \"#utility.yul\":389:396   */\n      dup5\n        /* \"#utility.yul\":380:386   */\n      dup3\n        /* \"#utility.yul\":369:378   */\n      dup6\n        /* \"#utility.yul\":365:387   */\n      add\n        /* \"#utility.yul\":344:397   */\n      tag_10\n      jump\t// in\n    tag_16:\n        /* \"#utility.yul\":334:397   */\n      swap2\n      pop\n        /* \"#utility.yul\":290:407   */\n      pop\n        /* \"#utility.yul\":218:414   */\n      swap3\n      swap2\n      pop\n      pop\n      jump\t// out\n        /* \"#utility.yul\":420:497   */\n    tag_17:\n      0x00\n        /* \"#utility.yul\":486:491   */\n      dup2\n        /* \"#utility.yul\":475:491   */\n      swap1\n      pop\n        /* \"#utility.yul\":465:497   */\n      swap2\n      swap1\n      pop\n      jump\t// out\n        /* \"#utility.yul\":503:625   */\n    tag_13:\n        /* \"#utility.yul\":576:600   */\n      tag_20\n        /* \"#utility.yul\":594:599   */\n      dup2\n        /* \"#utility.yul\":576:600   */\n      tag_17\n      jump\t// in\n    tag_20:\n        /* \"#utility.yul\":569:574   */\n      dup2\n        /* \"#utility.yul\":566:601   */\n      eq\n        /* \"#utility.yul\":556:558   */\n      tag_21\n      jumpi\n        /* \"#utility.yul\":615:616   */\n      0x00\n        /* \"#utility.yul\":612:613   */\n      dup1\n        /* \"#utility.yul\":605:617   */\n      revert\n        /* \"#utility.yul\":556:558   */\n    tag_21:\n        /* \"#utility.yul\":546:625   */\n      pop\n      jump\t// out\n\n    auxdata: 0xa2646970667358221220c52ed62a35ac0ca5a0f22672eae91654b70f6417ff9173063d4f74623a2432bd64736f6c63430008000033\n}\n",
				"bytecode": {
					"linkReferences": {},
					"object": "608060405234801561001057600080fd5b5060dc8061001f6000396000f3fe6080604052348015600f57600080fd5b506004361060285760003560e01c80633beb26c414602d575b600080fd5b60436004803603810190603f91906062565b6045565b005b8060008190555050565b600081359050605c816092565b92915050565b600060208284031215607357600080fd5b6000607f84828501604f565b91505092915050565b6000819050919050565b6099816088565b811460a357600080fd5b5056fea2646970667358221220c52ed62a35ac0ca5a0f22672eae91654b70f6417ff9173063d4f74623a2432bd64736f6c63430008000033",
					"opcodes": "PUSH1 0x80 PUSH1 0x40 MSTORE CALLVALUE DUP1 ISZERO PUSH2 0x10 JUMPI PUSH1 0x0 DUP1 REVERT JUMPDEST POP PUSH1 0xDC DUP1 PUSH2 0x1F PUSH1 0x0 CODECOPY PUSH1 0x0 RETURN INVALID PUSH1 0x80 PUSH1 0x40 MSTORE CALLVALUE DUP1 ISZERO PUSH1 0xF JUMPI PUSH1 0x0 DUP1 REVERT JUMPDEST POP PUSH1 0x4 CALLDATASIZE LT PUSH1 0x28 JUMPI PUSH1 0x0 CALLDATALOAD PUSH1 0xE0 SHR DUP1 PUSH4 0x3BEB26C4 EQ PUSH1 0x2D JUMPI JUMPDEST PUSH1 0x0 DUP1 REVERT JUMPDEST PUSH1 0x43 PUSH1 0x4 DUP1 CALLDATASIZE SUB DUP2 ADD SWAP1 PUSH1 0x3F SWAP2 SWAP1 PUSH1 0x62 JUMP JUMPDEST PUSH1 0x45 JUMP JUMPDEST STOP JUMPDEST DUP1 PUSH1 0x0 DUP2 SWAP1 SSTORE POP POP JUMP JUMPDEST PUSH1 0x0 DUP2 CALLDATALOAD SWAP1 POP PUSH1 0x5C DUP2 PUSH1 0x92 JUMP JUMPDEST SWAP3 SWAP2 POP POP JUMP JUMPDEST PUSH1 0x0 PUSH1 0x20 DUP3 DUP5 SUB SLT ISZERO PUSH1 0x73 JUMPI PUSH1 0x0 DUP1 REVERT JUMPDEST PUSH1 0x0 PUSH1 0x7F DUP5 DUP3 DUP6 ADD PUSH1 0x4F JUMP JUMPDEST SWAP2 POP POP SWAP3 SWAP2 POP POP JUMP JUMPDEST PUSH1 0x0 DUP2 SWAP1 POP SWAP2 SWAP1 POP JUMP JUMPDEST PUSH1 0x99 DUP2 PUSH1 0x88 JUMP JUMPDEST DUP2 EQ PUSH1 0xA3 JUMPI PUSH1 0x0 DUP1 REVERT JUMPDEST POP JUMP INVALID LOG2 PUSH5 0x6970667358 0x22 SLT KECCAK256 0xC5 0x2E 0xD6 0x2A CALLDATALOAD 0xAC 0xC 0xA5 LOG0 CALLCODE 0x26 PUSH19 0xEAE91654B70F6417FF9173063D4F74623A2432 0xBD PUSH5 0x736F6C6343 STOP ADDMOD STOP STOP CALLER "
				},
				"gasEstimates": {
					"creation": {
						"codeDepositCost": "44000",
						"executionCost": "93",
						"totalCost": "44093"
					},
					"external": {
						"setTime(uint256)": "20398"
					}
				},
				"methodIdentifiers": {
					"setTime(uint256)": "3beb26c4"
				}
			},
			"storageLayout": {
				"storage": [
					{
						"astId": 49,
						"contract": "src/Victim.sol:LibraryContract",
						"label": "storedTime",
						"offset": 0,
						"slot": "0",
						"type": "t_uint256"
					}
				],
				"types": {
					"t_uint256": {
						"encoding": "inplace",
						"label": "uint256",
						"numberOfBytes": "32"
					}
				}
			},
			"userdoc": {
				"kind": "user",
				"methods": {},
				"version": 1
			}
		}
	}
}